:020003000740B4
:020005000552A2
:02000700075B95
:100651004E475559454E2054524F4E47204B484F17
:1006610049202020004449454D20313020202020C0
:0A067100202020202020202020005F
:0D0625007F967E00120632D2B07F967E00D6
:10063200EF1FAC0670011E4C6014758901758CFCAD
:0F064200758A18D28C308DFDC28DC28C80E22259
:0706A2007E001206327F30DA
:1006A900C2A08F80C2A1D2A1D3EF9402748094809A
:0E06B90050047F0280027F017E001206322272
:0F073100D2A08F80C2A1D2A17F017E000206322A
:0606C7008B4B8A4C894DAB
:1006CD00E4FDAB4BAA4CA94D8D827583001203A19D
:0E06DD00FFFB3395E04B60061207310D80E401
:0106EB0022EC
:10071F00EF640170047F8080027FC0EF2D14FF0211
:02072F0006A919
:1006EC007F301206A97F051206A27F011206A27F97
:0E06FC00381206A97F011206A97F0C0206A97A
:1005BF00C290C2B0C2B17F647E00120632D29012D6
:1005CF000625D2B112062EC290C2B07F647E0012F1
:1005DF000632D2B1120625D2907F2C7E011206323E
:1005EF00C290C2B0C2B1E4FDEDFF3395E0FEC3EFA0
:1005FF009405EE648094805010B290B2B0B2B17F87
:10060F00C87E001206320D80DFC290C2B0C2B17F29
:06061F002C7E01020632F0
:0A0402008B4B8A4C894D8C4E8D4FB8
:10040C00E4F550F551C3E551954FE54E6480F8E5A0
:09041C005064809840030204AD15
:10042500AB4BAA4CA94D120388FF3395E0F5548FC9
:1004350055E4F552F553AB4BAA4CA94D12070AEFFB
:1004450024FFFFEE34FFFEC3E5539FE5529E50287F
:10045500AB4BAA4CA94DE5532401FFE435528F82DD
:10046500F5831203A18553828552831203E0055358
:10047500E55370C2055280BEAF55C007AB4BAA4CC1
:10048500A94D12070A74FF2FF58274FF3EF583AB61
:0A0495004BAA4CA94DD0E01203E081
:0E049F000551E55160030204110550020411DD
:0104AD00222C
:0A04AE008B4B8A4C894D8C4E8D4F0C
:1004B800E4F550F551C3E551954FE54E6480F8E5F4
:0904C800506480984003020551C4
:1004D100AB4BAA4CA94D12070A74FF2FF58274FF8A
:1004E1003EF583AB4BAA4CA94D1203A1FF3395E016
:1004F100F5548F5512070AEF24FFF553EE34FFF53B
:1005010052D3E5539400E552648094804029AB4B6B
:10051100AA4CA94DE55324FFFFE55234FF8F82F524
:10052100831203A18553828552831203E0E553159B
:100531005370CE155280CAAB4BAA4CA94DE555124A
:0205410003CEE7
:0E0543000551E55160030204BD05500204BDE0
:010551002287
:1005520078217C007D007BFF7A0679517E007F1531
:1005620012036278367C007D007BFF7A0679667E14
:10057200007F151203621206EC7F011206A97D01AB
:100582007F0112071F7B007A0079211206C77D01C5
:100592007F0212071F7B007A0079361206C77B00A2
:1005A2007A0079367D017C001204AE7B007A0079F4
:0D05B200217D017C0012040212062E80BC87
:10067B00D290C2B0C2B17F647E00120632C290D259
:10068B00B0C2B17F647E00120632C290C2B0D2B14A
:07069B007F647E00020632BD
:05075B0012067B80FB8B
:0F0740007F0112000E7F0212000EE4FF020097ED
:10000E00EFD3940240037FFF22740F2F2FF8E620C8
:10001E00E5F4C2AFE64430F6D2AFAE0CEEC39F505D
:10002E00210E74142EF8E6F908E618BE020274FFCB
:10003E00FDED69600909E71919F7090980F316162C
:10004E0080DAEED39F400405810581EED39F4022D6
:10005E0074142EF808E6F9EEB50C02A981180606FE
:10006E00E6FDED6960091919E70909F71980F31E14
:10007E0080D9EF2414F8E604F8EF2F0490000393D0
:09008E00F608EF2F93F67F002223
:10009700EFD3940240037FFF22EF23240FF8E630CB
:1000A700E5F4C2AFE6548CF6D2AFE50CB5070A7497
:1000B700142FF8E6F58102019B502E74152FF8E6F0
:1000C700BF020274FFFD18E6F974142FF8FBE6FC73
:1000D700E96C6008A805E7F61D1980F4A803A605D2
:1000E7001FE50CB507E37F002274152FF8E6FD180E
:1000F70086010F74142FF8A601088604E50CB507CE
:1001070002AC81ED6C60080D09A805E6F780F4E5FF
:090117000CB507DE89817F00228E
:03000B00020125CA
:10012000C2AF80FE3212012485D00B75D008AAE040
:10013000C28CE58A24F7F58AE58C34D8F58CD28C0C
:10014000EC2415F8E6BC020274FFC39581B41400D8
:1001500040CE7903780E16E608700BC2AFE630E1A8
:10016000034418F6D2AF08D9EDEA8BD03000012253
:10017000D50DFCC0E0C0D0C0F0C083C082C000C0BC
:1001800001C002C003C004C005C006C007E50C23BF
:10019000240FF87440C2AF46F6D2AFD200E50CFF90
:1001A00023240FF80F0808BF03047F00780FE63000
:1001B000E4F200E50CC39F5020050C7414250CF8E4
:1001C000E6FDA68108E6AE0CBE020274FFCDF8E89B
:1001D0006D60E008E6C0E080F6E50CD39F4027E5BF
:1001E0000C2415F8E6AE0CBE020274FFFD18E6CD35
:1001F000F8E5816D6006D0E0F61880F5E50C241472
:10020000C8F6150C80D3750D05E50C23240FF87F77
:1002100004C2AFE610E61E30E00310E20C7F0030AF
:05022000E10730E304DA
:100225007F0854F4547CC6D2AF54804207C20022E2
:10023500F6D2AFD007D006D005D004D003D002D077
:1002450001D000D082D083D0F0D0D0D0E0C200223F
:100255007814A68174026006FF0876FFDFFB7F0332
:10026500E4780EF608F608DFFA780F76309000038A
:10027500740193C0E0E493C0E0750D0543890175F1
:0D0285008AF0758CD8D28CD2AFD2A922029B
:0300000002074FA5
:0C074F00787FE4F6D8FD75815502025554
:10029200E709F608DFFA8046E709F208DFFA803E4E
:1002A20088828C83E709F0A3DFFA8032E309F6083B
:1002B200DFFA8078E309F208DFFA807088828C83A3
:1002C200E309F0A3DFFA806489828A83E0A3F60857
:1002D200DFFA805889828A83E0A3F208DFFA804C31
:1002E20080D280FA80C680D4806980F28033801008
:1002F20080A680EA809A80A880DA80E280CA803371
:1003020089828A83ECFAE493A3C8C582C8CCC583E8
:10031200CCF0A3C8C582C8CCC583CCDFE9DEE780B8
:100322000D89828A83E493A3F608DFF9ECFAA9F037
:10033200EDFB2289828A83ECFAE0A3C8C582C8CC8D
:10034200C583CCF0A3C8C582C8CCC583CCDFEADEA6
:10035200E880DB89828A83E493A3F208DFF980CC08
:1003620088F0EF60010E4E60C388F0ED2402B40401
:100372000050B9F582EB2402B4040050AF232345A8
:0603820082239002E273E9
:10038800BB010689828A83E0225002E722BBFE0273
:09039800E32289828A83E49322A6
:1003A100BB010CE58229F582E5833AF583E0225011
:1003B10006E92582F8E622BBFE06E92582F8E2225B
:0D03C100E58229F582E5833AF583E4932275
:1003CE00BB010689828A83F0225002F722BBFE010E
:0203DE00F32208
:1003E000F8BB010DE58229F582E5833AF583E8F053
:1003F000225006E92582C8F622BBFE05E92582C8FF
:02040000F222E6
:10070A00E4FFFE120388600C0FEF70010E09E97016
:05071A00F20A80EF224D
:00000001FF
